{
  "contractName": "DGB",
  "abi": [
    {
      "inputs": [
        {
          "internalType": "uint256",
          "name": "_supply",
          "type": "uint256"
        }
      ],
      "stateMutability": "nonpayable",
      "type": "constructor"
    },
    {
      "anonymous": false,
      "inputs": [
        {
          "indexed": true,
          "internalType": "address",
          "name": "from",
          "type": "address"
        },
        {
          "indexed": false,
          "internalType": "uint256",
          "name": "value",
          "type": "uint256"
        }
      ],
      "name": "Confiscate",
      "type": "event"
    },
    {
      "anonymous": false,
      "inputs": [
        {
          "indexed": false,
          "internalType": "uint256",
          "name": "value",
          "type": "uint256"
        },
        {
          "indexed": false,
          "internalType": "uint256",
          "name": "totalSupply",
          "type": "uint256"
        }
      ],
      "name": "Decrease",
      "type": "event"
    },
    {
      "anonymous": false,
      "inputs": [
        {
          "indexed": false,
          "internalType": "uint256",
          "name": "value",
          "type": "uint256"
        },
        {
          "indexed": false,
          "internalType": "uint256",
          "name": "totalSupply",
          "type": "uint256"
        }
      ],
      "name": "Increase",
      "type": "event"
    },
    {
      "anonymous": false,
      "inputs": [
        {
          "indexed": true,
          "internalType": "address",
          "name": "from",
          "type": "address"
        },
        {
          "indexed": false,
          "internalType": "uint256",
          "name": "value",
          "type": "uint256"
        }
      ],
      "name": "Invest",
      "type": "event"
    },
    {
      "anonymous": false,
      "inputs": [
        {
          "indexed": true,
          "internalType": "address",
          "name": "to",
          "type": "address"
        },
        {
          "indexed": false,
          "internalType": "uint256",
          "name": "value",
          "type": "uint256"
        }
      ],
      "name": "Reward",
      "type": "event"
    },
    {
      "anonymous": false,
      "inputs": [
        {
          "indexed": true,
          "internalType": "address",
          "name": "from",
          "type": "address"
        },
        {
          "indexed": true,
          "internalType": "address",
          "name": "to",
          "type": "address"
        },
        {
          "indexed": false,
          "internalType": "uint256",
          "name": "value",
          "type": "uint256"
        }
      ],
      "name": "Transfer",
      "type": "event"
    },
    {
      "inputs": [],
      "name": "admin",
      "outputs": [
        {
          "internalType": "address",
          "name": "",
          "type": "address"
        }
      ],
      "stateMutability": "view",
      "type": "function",
      "constant": true
    },
    {
      "inputs": [
        {
          "internalType": "address",
          "name": "",
          "type": "address"
        }
      ],
      "name": "balanceOf",
      "outputs": [
        {
          "internalType": "uint256",
          "name": "",
          "type": "uint256"
        }
      ],
      "stateMutability": "view",
      "type": "function",
      "constant": true
    },
    {
      "inputs": [],
      "name": "decimals",
      "outputs": [
        {
          "internalType": "uint8",
          "name": "",
          "type": "uint8"
        }
      ],
      "stateMutability": "view",
      "type": "function",
      "constant": true
    },
    {
      "inputs": [],
      "name": "name",
      "outputs": [
        {
          "internalType": "string",
          "name": "",
          "type": "string"
        }
      ],
      "stateMutability": "view",
      "type": "function",
      "constant": true
    },
    {
      "inputs": [],
      "name": "symbol",
      "outputs": [
        {
          "internalType": "string",
          "name": "",
          "type": "string"
        }
      ],
      "stateMutability": "view",
      "type": "function",
      "constant": true
    },
    {
      "inputs": [],
      "name": "totalSupply",
      "outputs": [
        {
          "internalType": "uint256",
          "name": "",
          "type": "uint256"
        }
      ],
      "stateMutability": "view",
      "type": "function",
      "constant": true
    },
    {
      "inputs": [
        {
          "internalType": "address",
          "name": "_to",
          "type": "address"
        },
        {
          "internalType": "uint256",
          "name": "_value",
          "type": "uint256"
        }
      ],
      "name": "transfer",
      "outputs": [],
      "stateMutability": "nonpayable",
      "type": "function"
    },
    {
      "inputs": [
        {
          "internalType": "uint256",
          "name": "_value",
          "type": "uint256"
        }
      ],
      "name": "reward",
      "outputs": [],
      "stateMutability": "nonpayable",
      "type": "function"
    },
    {
      "inputs": [
        {
          "internalType": "address",
          "name": "_from",
          "type": "address"
        },
        {
          "internalType": "uint256",
          "name": "_value",
          "type": "uint256"
        }
      ],
      "name": "invest",
      "outputs": [],
      "stateMutability": "nonpayable",
      "type": "function"
    },
    {
      "inputs": [
        {
          "internalType": "address",
          "name": "_from",
          "type": "address"
        },
        {
          "internalType": "uint256",
          "name": "_value",
          "type": "uint256"
        }
      ],
      "name": "confiscate",
      "outputs": [],
      "stateMutability": "nonpayable",
      "type": "function"
    },
    {
      "inputs": [
        {
          "internalType": "uint256",
          "name": "_value",
          "type": "uint256"
        }
      ],
      "name": "increase",
      "outputs": [],
      "stateMutability": "nonpayable",
      "type": "function"
    },
    {
      "inputs": [
        {
          "internalType": "uint256",
          "name": "_value",
          "type": "uint256"
        }
      ],
      "name": "decrease",
      "outputs": [],
      "stateMutability": "nonpayable",
      "type": "function"
    }
  ],
  "bytecode": "0x60806040523480156200001157600080fd5b50604051620012ed380380620012ed833981810160405281019062000037919062000272565b33600460006101000a81548173ffffffffffffffffffffffffffffffffffffffff021916908373ffffffffffffffffffffffffffffffffffffffff16021790555080600560003373ffffffffffffffffffffffffffffffffffffffff1673ffffffffffffffffffffffffffffffffffffffff168152602001908152602001600020819055506040518060400160405280600381526020017f4447420000000000000000000000000000000000000000000000000000000000815250600090805190602001906200010992919062000182565b506040518060400160405280600381526020017f646f6e0000000000000000000000000000000000000000000000000000000000815250600190805190602001906200015792919062000182565b506000600260006101000a81548160ff021916908360ff160217905550806003819055505062000308565b8280546200019090620002d3565b90600052602060002090601f016020900481019282620001b4576000855562000200565b82601f10620001cf57805160ff191683800117855562000200565b8280016001018555821562000200579182015b82811115620001ff578251825591602001919060010190620001e2565b5b5090506200020f919062000213565b5090565b5b808211156200022e57600081600090555060010162000214565b5090565b600080fd5b6000819050919050565b6200024c8162000237565b81146200025857600080fd5b50565b6000815190506200026c8162000241565b92915050565b6000602082840312156200028b576200028a62000232565b5b60006200029b848285016200025b565b91505092915050565b7f4e487b7100000000000000000000000000000000000000000000000000000000600052602260045260246000fd5b60006002820490506001821680620002ec57607f821691505b602082108103620003025762000301620002a4565b5b50919050565b610fd580620003186000396000f3fe608060405234801561001057600080fd5b50600436106100b45760003560e01c806370a082311161007157806370a082311461016757806395d89b4114610197578063a9059cbb146101b5578063a9fb763c146101d1578063b9b8c246146101ed578063f851a44014610209576100b4565b806306fdde03146100b957806318160ddd146100d75780632d6d3062146100f557806330f3f0db14610111578063313ce5671461012d57806347298f821461014b575b600080fd5b6100c1610227565b6040516100ce9190610c7d565b60405180910390f35b6100df6102b5565b6040516100ec9190610cb8565b60405180910390f35b61010f600480360381019061010a9190610d04565b6102bb565b005b61012b60048036038101906101269190610d04565b6103e0565b005b610135610505565b6040516101429190610d4d565b60405180910390f35b61016560048036038101906101609190610dc6565b610518565b005b610181600480360381019061017c9190610e06565b61068e565b60405161018e9190610cb8565b60405180910390f35b61019f6106a6565b6040516101ac9190610c7d565b60405180910390f35b6101cf60048036038101906101ca9190610dc6565b610734565b005b6101eb60048036038101906101e69190610d04565b610929565b005b61020760048036038101906102029190610dc6565b610a48565b005b610211610bbe565b60405161021e9190610e42565b60405180910390f35b6000805461023490610e8c565b80601f016020809104026020016040519081016040528092919081815260200182805461026090610e8c565b80156102ad5780601f10610282576101008083540402835291602001916102ad565b820191906000526020600020905b81548152906001019060200180831161029057829003601f168201915b505050505081565b60035481565b600460009054906101000a900473ffffffffffffffffffffffffffffffffffffffff1673ffffffffffffffffffffffffffffffffffffffff163373ffffffffffffffffffffffffffffffffffffffff16036103dd578060056000600460009054906101000a900473ffffffffffffffffffffffffffffffffffffffff1673ffffffffffffffffffffffffffffffffffffffff1673ffffffffffffffffffffffffffffffffffffffff16815260200190815260200160002060008282546103819190610eec565b92505081905550806003600082825461039a9190610eec565b925050819055507fa7ae29f202c6d397f6ddef05f03b5931a083b61a1600c15be6d48fcb9f7007b2816003546040516103d4929190610f20565b60405180910390a15b50565b600460009054906101000a900473ffffffffffffffffffffffffffffffffffffffff1673ffffffffffffffffffffffffffffffffffffffff163373ffffffffffffffffffffffffffffffffffffffff1603610502578060056000600460009054906101000a900473ffffffffffffffffffffffffffffffffffffffff1673ffffffffffffffffffffffffffffffffffffffff1673ffffffffffffffffffffffffffffffffffffffff16815260200190815260200160002060008282546104a69190610f49565b9250508190555080600360008282546104bf9190610f49565b925050819055507fa79208118b7dea0cf7733a97621cb0fdfd52cca70f7731322fdfc557d8d406f7816003546040516104f9929190610f20565b60405180910390a15b50565b600260009054906101000a900460ff1681565b600460009054906101000a900473ffffffffffffffffffffffffffffffffffffffff1673ffffffffffffffffffffffffffffffffffffffff163373ffffffffffffffffffffffffffffffffffffffff160361068a578060056000600460009054906101000a900473ffffffffffffffffffffffffffffffffffffffff1673ffffffffffffffffffffffffffffffffffffffff1673ffffffffffffffffffffffffffffffffffffffff16815260200190815260200160002060008282546105de9190610f49565b9250508190555080600560008473ffffffffffffffffffffffffffffffffffffffff1673ffffffffffffffffffffffffffffffffffffffff16815260200190815260200160002060008282546106349190610eec565b925050819055508173ffffffffffffffffffffffffffffffffffffffff167f81ccb678f2c1ba2d46abedd3960e55fc3e9637021da4d383c834c4b91a64ccc1826040516106819190610cb8565b60405180910390a25b5050565b60056020528060005260406000206000915090505481565b600180546106b390610e8c565b80601f01602080910402602001604051908101604052809291908181526020018280546106df90610e8c565b801561072c5780601f106107015761010080835404028352916020019161072c565b820191906000526020600020905b81548152906001019060200180831161070f57829003601f168201915b505050505081565b80600560003373ffffffffffffffffffffffffffffffffffffffff1673ffffffffffffffffffffffffffffffffffffffff168152602001908152602001600020541161077f57600080fd5b600560008373ffffffffffffffffffffffffffffffffffffffff1673ffffffffffffffffffffffffffffffffffffffff1681526020019081526020016000205481600560008573ffffffffffffffffffffffffffffffffffffffff1673ffffffffffffffffffffffffffffffffffffffff1681526020019081526020016000205461080a9190610f49565b1161081457600080fd5b80600560003373ffffffffffffffffffffffffffffffffffffffff1673ffffffffffffffffffffffffffffffffffffffff16815260200190815260200160002060008282546108639190610eec565b9250508190555080600560008473ffffffffffffffffffffffffffffffffffffffff1673ffffffffffffffffffffffffffffffffffffffff16815260200190815260200160002060008282546108b99190610f49565b925050819055508173ffffffffffffffffffffffffffffffffffffffff163373ffffffffffffffffffffffffffffffffffffffff167fddf252ad1be2c89b69c2b068fc378daa952ba7f163c4a11628f55a4df523b3ef8360405161091d9190610cb8565b60405180910390a35050565b8060056000600460009054906101000a900473ffffffffffffffffffffffffffffffffffffffff1673ffffffffffffffffffffffffffffffffffffffff1673ffffffffffffffffffffffffffffffffffffffff168152602001908152602001600020600082825461099a9190610eec565b9250508190555080600560003373ffffffffffffffffffffffffffffffffffffffff1673ffffffffffffffffffffffffffffffffffffffff16815260200190815260200160002060008282546109f09190610f49565b925050819055503373ffffffffffffffffffffffffffffffffffffffff167f619caafabdd75649b302ba8419e48cccf64f37f1983ac4727cfb38b57703ffc982604051610a3d9190610cb8565b60405180910390a250565b600460009054906101000a900473ffffffffffffffffffffffffffffffffffffffff1673ffffffffffffffffffffffffffffffffffffffff163373ffffffffffffffffffffffffffffffffffffffff1603610bba578060056000600460009054906101000a900473ffffffffffffffffffffffffffffffffffffffff1673ffffffffffffffffffffffffffffffffffffffff1673ffffffffffffffffffffffffffffffffffffffff1681526020019081526020016000206000828254610b0e9190610f49565b9250508190555080600560008473ffffffffffffffffffffffffffffffffffffffff1673ffffffffffffffffffffffffffffffffffffffff1681526020019081526020016000206000828254610b649190610eec565b925050819055508173ffffffffffffffffffffffffffffffffffffffff167fd90d253a9de34d2fdd5a75ae49ea17fcb43af32fc8ea08cc6d2341991dd3872e82604051610bb19190610cb8565b60405180910390a25b5050565b600460009054906101000a900473ffffffffffffffffffffffffffffffffffffffff1681565b600081519050919050565b600082825260208201905092915050565b60005b83811015610c1e578082015181840152602081019050610c03565b83811115610c2d576000848401525b50505050565b6000601f19601f8301169050919050565b6000610c4f82610be4565b610c598185610bef565b9350610c69818560208601610c00565b610c7281610c33565b840191505092915050565b60006020820190508181036000830152610c978184610c44565b905092915050565b6000819050919050565b610cb281610c9f565b82525050565b6000602082019050610ccd6000830184610ca9565b92915050565b600080fd5b610ce181610c9f565b8114610cec57600080fd5b50565b600081359050610cfe81610cd8565b92915050565b600060208284031215610d1a57610d19610cd3565b5b6000610d2884828501610cef565b91505092915050565b600060ff82169050919050565b610d4781610d31565b82525050565b6000602082019050610d626000830184610d3e565b92915050565b600073ffffffffffffffffffffffffffffffffffffffff82169050919050565b6000610d9382610d68565b9050919050565b610da381610d88565b8114610dae57600080fd5b50565b600081359050610dc081610d9a565b92915050565b60008060408385031215610ddd57610ddc610cd3565b5b6000610deb85828601610db1565b9250506020610dfc85828601610cef565b9150509250929050565b600060208284031215610e1c57610e1b610cd3565b5b6000610e2a84828501610db1565b91505092915050565b610e3c81610d88565b82525050565b6000602082019050610e576000830184610e33565b92915050565b7f4e487b7100000000000000000000000000000000000000000000000000000000600052602260045260246000fd5b60006002820490506001821680610ea457607f821691505b602082108103610eb757610eb6610e5d565b5b50919050565b7f4e487b7100000000000000000000000000000000000000000000000000000000600052601160045260246000fd5b6000610ef782610c9f565b9150610f0283610c9f565b925082821015610f1557610f14610ebd565b5b828203905092915050565b6000604082019050610f356000830185610ca9565b610f426020830184610ca9565b9392505050565b6000610f5482610c9f565b9150610f5f83610c9f565b9250827fffffffffffffffffffffffffffffffffffffffffffffffffffffffffffffffff03821115610f9457610f93610ebd565b5b82820190509291505056fea26469706673582212204b22bd96ed9a8064f7c76b6430ed1518c2557049751a14e60c84fbde4b7925ea64736f6c634300080d0033",
  "immutableReferences": {},
  "source": "// SPDX-License-Identifier: MIT\npragma solidity ^0.8.13; // (1) version pragma\n\ncontract DGB {\n    string public name;\n    string public symbol;\n    uint8 public decimals;\n    uint256 public totalSupply;\n    address public admin;\n    mapping (address => uint256) public balanceOf;\n\n    event Transfer(address indexed from, address indexed to, uint256 value);\n    event Reward(address indexed to, uint256 value);\n    event Confiscate(address indexed from, uint256 value);\n    event Invest(address indexed from, uint256 value);\n    event Increase(uint256 value, uint256 totalSupply);\n    event Decrease(uint256 value, uint256 totalSupply);\n\n    modifier isAdmin() {if(msg.sender == admin)_;}\n\n    constructor (uint256 _supply) {\n        admin = msg.sender;\n        balanceOf[msg.sender] = _supply;\n        name = \"DGB\";\n        symbol = \"don\";\n        decimals = 0;\n        totalSupply = _supply;\n    }\n\n    function transfer(address _to, uint256 _value) public {\n        require(balanceOf[msg.sender] > _value);\n        require(balanceOf[_to] + _value > balanceOf[_to]);\n        balanceOf[msg.sender] -= _value;\n        balanceOf[_to] +=_value;\n        emit Transfer(msg.sender, _to, _value);\n    }\n\n    // comment + review\n    function reward(uint256 _value) public {\n        balanceOf[admin] -= _value;\n        balanceOf[msg.sender] +=_value;\n        emit Reward(msg.sender, _value);\n    }\n    \n    // invest\n    function invest(address _from, uint256 _value) public isAdmin{\n        balanceOf[admin] += _value;\n        balanceOf[_from] -=_value;\n        emit Invest(_from, _value);\n    }\n\n    // confiscate\n    function confiscate(address _from, uint256 _value) public isAdmin {\n        balanceOf[admin] += _value;\n        balanceOf[_from] -=_value;\n        emit Confiscate(_from, _value);\n    }\n\n    // increase totalSupply\n    function increase(uint256 _value) public isAdmin{\n        balanceOf[admin] += _value;\n        totalSupply +=_value;\n        emit Increase(_value, totalSupply);\n    }\n\n    // decrease totalSupply\n    function decrease(uint256 _value) public isAdmin{\n        balanceOf[admin] -= _value;\n        totalSupply -=_value;\n        emit Decrease(_value, totalSupply);\n    }\n}\n",
  "sourcePath": "/home/dgb/ESG/react/truffle/contracts/DGB.sol",
  "compiler": {
    "name": "solc",
    "version": "0.8.13+commit.abaa5c0e.Emscripten.clang"
  },
  "schemaVersion": "3.4.13",
  "updatedAt": "2023-06-16T07:30:58.494Z",
  "networkType": "ethereum",
  "devdoc": {
    "kind": "dev",
    "methods": {},
    "version": 1
  },
  "userdoc": {
    "kind": "user",
    "methods": {},
    "version": 1
  }
}