{
  "contractName": "Migrations",
  "abi": [
    {
      "inputs": [],
      "name": "last_completed_migration",
      "outputs": [
        {
          "internalType": "uint256",
          "name": "",
          "type": "uint256"
        }
      ],
      "stateMutability": "view",
      "type": "function",
      "constant": true
    },
    {
      "inputs": [],
      "name": "owner",
      "outputs": [
        {
          "internalType": "address",
          "name": "",
          "type": "address"
        }
      ],
      "stateMutability": "view",
      "type": "function",
      "constant": true
    },
    {
      "inputs": [
        {
          "internalType": "address",
          "name": "account",
          "type": "address"
        }
      ],
      "name": "toString",
      "outputs": [
        {
          "internalType": "string",
          "name": "",
          "type": "string"
        }
      ],
      "stateMutability": "pure",
      "type": "function",
      "constant": true
    },
    {
      "inputs": [
        {
          "internalType": "uint256",
          "name": "value",
          "type": "uint256"
        }
      ],
      "name": "toString",
      "outputs": [
        {
          "internalType": "string",
          "name": "",
          "type": "string"
        }
      ],
      "stateMutability": "pure",
      "type": "function",
      "constant": true
    },
    {
      "inputs": [
        {
          "internalType": "bytes",
          "name": "data",
          "type": "bytes"
        }
      ],
      "name": "toString",
      "outputs": [
        {
          "internalType": "string",
          "name": "",
          "type": "string"
        }
      ],
      "stateMutability": "pure",
      "type": "function",
      "constant": true
    },
    {
      "inputs": [
        {
          "internalType": "bytes32",
          "name": "value",
          "type": "bytes32"
        }
      ],
      "name": "toString",
      "outputs": [
        {
          "internalType": "string",
          "name": "",
          "type": "string"
        }
      ],
      "stateMutability": "pure",
      "type": "function",
      "constant": true
    },
    {
      "inputs": [
        {
          "internalType": "uint256",
          "name": "completed",
          "type": "uint256"
        }
      ],
      "name": "setCompleted",
      "outputs": [],
      "stateMutability": "nonpayable",
      "type": "function"
    }
  ],
  "bytecode": "0x6080604052336000806101000a81548173ffffffffffffffffffffffffffffffffffffffff021916908373ffffffffffffffffffffffffffffffffffffffff16021790555034801561005057600080fd5b50610c4e806100606000396000f3fe608060405234801561001057600080fd5b506004361061007d5760003560e01c806371aad10d1161005b57806371aad10d146101005780638da5cb5b14610130578063b11a19e81461014e578063fdacd5761461017e5761007d565b8063445df0ac1461008257806356ca623e146100a05780636900a3ae146100d0575b600080fd5b61008a61019a565b604051610097919061060e565b60405180910390f35b6100ba60048036038101906100b5919061069b565b6101a0565b6040516100c79190610761565b60405180910390f35b6100ea60048036038101906100e591906107af565b6101d1565b6040516100f79190610761565b60405180910390f35b61011a60048036038101906101159190610911565b610202565b6040516101279190610761565b60405180910390f35b6101386104fc565b6040516101459190610969565b60405180910390f35b610168600480360381019061016391906109ba565b610520565b6040516101759190610761565b60405180910390f35b610198600480360381019061019391906107af565b610551565b005b60015481565b60606101ca826040516020016101b69190610a2f565b604051602081830303815290604052610202565b9050919050565b60606101fb826040516020016101e79190610a6b565b604051602081830303815290604052610202565b9050919050565b606060006040518060400160405280601081526020017f3031323334353637383961626364656600000000000000000000000000000000815250905060006002845161024e9190610ab5565b600261025a9190610b0f565b67ffffffffffffffff811115610273576102726107e6565b5b6040519080825280601f01601f1916602001820160405280156102a55781602001600182028036833780820191505090505b5090507f3000000000000000000000000000000000000000000000000000000000000000816000815181106102dd576102dc610b65565b5b60200101907effffffffffffffffffffffffffffffffffffffffffffffffffffffffffffff1916908160001a9053507f78000000000000000000000000000000000000000000000000000000000000008160018151811061034157610340610b65565b5b60200101907effffffffffffffffffffffffffffffffffffffffffffffffffffffffffffff1916908160001a90535060005b84518110156104f15782600486838151811061039257610391610b65565b5b602001015160f81c60f81b7effffffffffffffffffffffffffffffffffffffffffffffffffffffffffffff1916901c60f81c60ff16815181106103d8576103d7610b65565b5b602001015160f81c60f81b826002836103f19190610ab5565b60026103fd9190610b0f565b8151811061040e5761040d610b65565b5b60200101907effffffffffffffffffffffffffffffffffffffffffffffffffffffffffffff1916908160001a90535082600f60f81b86838151811061045657610455610b65565b5b602001015160f81c60f81b1660f81c60ff168151811061047957610478610b65565b5b602001015160f81c60f81b826002836104929190610ab5565b600361049e9190610b0f565b815181106104af576104ae610b65565b5b60200101907effffffffffffffffffffffffffffffffffffffffffffffffffffffffffffff1916908160001a90535080806104e990610b94565b915050610373565b508092505050919050565b60008054906101000a900473ffffffffffffffffffffffffffffffffffffffff1681565b606061054a826040516020016105369190610bfd565b604051602081830303815290604052610202565b9050919050565b60008054906101000a900473ffffffffffffffffffffffffffffffffffffffff1673ffffffffffffffffffffffffffffffffffffffff163373ffffffffffffffffffffffffffffffffffffffff16146105a9336101a0565b906105ea576040517f08c379a00000000000000000000000000000000000000000000000000000000081526004016105e19190610761565b60405180910390fd5b508060018190555050565b6000819050919050565b610608816105f5565b82525050565b600060208201905061062360008301846105ff565b92915050565b6000604051905090565b600080fd5b600080fd5b600073ffffffffffffffffffffffffffffffffffffffff82169050919050565b60006106688261063d565b9050919050565b6106788161065d565b811461068357600080fd5b50565b6000813590506106958161066f565b92915050565b6000602082840312156106b1576106b0610633565b5b60006106bf84828501610686565b91505092915050565b600081519050919050565b600082825260208201905092915050565b60005b838110156107025780820151818401526020810190506106e7565b83811115610711576000848401525b50505050565b6000601f19601f8301169050919050565b6000610733826106c8565b61073d81856106d3565b935061074d8185602086016106e4565b61075681610717565b840191505092915050565b6000602082019050818103600083015261077b8184610728565b905092915050565b61078c816105f5565b811461079757600080fd5b50565b6000813590506107a981610783565b92915050565b6000602082840312156107c5576107c4610633565b5b60006107d38482850161079a565b91505092915050565b600080fd5b600080fd5b7f4e487b7100000000000000000000000000000000000000000000000000000000600052604160045260246000fd5b61081e82610717565b810181811067ffffffffffffffff8211171561083d5761083c6107e6565b5b80604052505050565b6000610850610629565b905061085c8282610815565b919050565b600067ffffffffffffffff82111561087c5761087b6107e6565b5b61088582610717565b9050602081019050919050565b82818337600083830152505050565b60006108b46108af84610861565b610846565b9050828152602081018484840111156108d0576108cf6107e1565b5b6108db848285610892565b509392505050565b600082601f8301126108f8576108f76107dc565b5b81356109088482602086016108a1565b91505092915050565b60006020828403121561092757610926610633565b5b600082013567ffffffffffffffff81111561094557610944610638565b5b610951848285016108e3565b91505092915050565b6109638161065d565b82525050565b600060208201905061097e600083018461095a565b92915050565b6000819050919050565b61099781610984565b81146109a257600080fd5b50565b6000813590506109b48161098e565b92915050565b6000602082840312156109d0576109cf610633565b5b60006109de848285016109a5565b91505092915050565b60008160601b9050919050565b60006109ff826109e7565b9050919050565b6000610a11826109f4565b9050919050565b610a29610a248261065d565b610a06565b82525050565b6000610a3b8284610a18565b60148201915081905092915050565b6000819050919050565b610a65610a60826105f5565b610a4a565b82525050565b6000610a778284610a54565b60208201915081905092915050565b7f4e487b7100000000000000000000000000000000000000000000000000000000600052601160045260246000fd5b6000610ac0826105f5565b9150610acb836105f5565b9250817fffffffffffffffffffffffffffffffffffffffffffffffffffffffffffffffff0483118215151615610b0457610b03610a86565b5b828202905092915050565b6000610b1a826105f5565b9150610b25836105f5565b9250827fffffffffffffffffffffffffffffffffffffffffffffffffffffffffffffffff03821115610b5a57610b59610a86565b5b828201905092915050565b7f4e487b7100000000000000000000000000000000000000000000000000000000600052603260045260246000fd5b6000610b9f826105f5565b91507fffffffffffffffffffffffffffffffffffffffffffffffffffffffffffffffff8203610bd157610bd0610a86565b5b600182019050919050565b6000819050919050565b610bf7610bf282610984565b610bdc565b82525050565b6000610c098284610be6565b6020820191508190509291505056fea2646970667358221220f6e6c816a8026d7170da648b679e219c17ba2f7d0e5818614dd40857d66d28c364736f6c634300080d0033",
  "immutableReferences": {},
  "source": "// SPDX-License-Identifier: MIT\npragma solidity ^0.8.13;\n\n\n\ncontract Migrations {\n  address public owner = msg.sender;\n\n  uint public last_completed_migration;\n  modifier restricted() {\n    require(\n      msg.sender == owner,\n      toString(msg.sender)\n    );\n    _;\n  }\n  \n function toString(address account) public pure returns(string memory) {\n    return toString(abi.encodePacked(account));\n}\n\nfunction toString(uint256 value) public pure returns(string memory) {\n    return toString(abi.encodePacked(value));\n}\n\nfunction toString(bytes32 value) public pure returns(string memory) {\n    return toString(abi.encodePacked(value));\n}\n\nfunction toString(bytes memory data) public pure returns(string memory) {\n    bytes memory alphabet = \"0123456789abcdef\";\n\n    bytes memory str = new bytes(2 + data.length * 2);\n    str[0] = \"0\";\n    str[1] = \"x\";\n    for (uint i = 0; i < data.length; i++) {\n        str[2+i*2] = alphabet[uint(uint8(data[i] >> 4))];\n        str[3+i*2] = alphabet[uint(uint8(data[i] & 0x0f))];\n    }\n    return string(str);\n}\n\n  function setCompleted(uint completed) public restricted {\n    last_completed_migration = completed;\n  }\n}\n",
  "sourcePath": "/home/dgb/ESG/react/truffle/contracts/Migrations.sol",
  "compiler": {
    "name": "solc",
    "version": "0.8.13+commit.abaa5c0e.Emscripten.clang"
  },
  "schemaVersion": "3.4.13",
  "updatedAt": "2023-06-16T11:43:28.368Z",
  "networkType": "ethereum",
  "devdoc": {
    "kind": "dev",
    "methods": {},
    "version": 1
  },
  "userdoc": {
    "kind": "user",
    "methods": {},
    "version": 1
  }
}